{
  "contractName": "Lynx",
  "abi": [
    {
      "constant": true,
      "inputs": [],
      "name": "declarationPeriod",
      "outputs": [
        {
          "name": "",
          "type": "bool"
        }
      ],
      "payable": false,
      "stateMutability": "view",
      "type": "function",
      "signature": "0x495c759c"
    },
    {
      "constant": true,
      "inputs": [],
      "name": "lastDeclarationPeriod",
      "outputs": [
        {
          "name": "",
          "type": "uint256"
        }
      ],
      "payable": false,
      "stateMutability": "view",
      "type": "function",
      "signature": "0x72bafc67"
    },
    {
      "constant": true,
      "inputs": [
        {
          "name": "",
          "type": "address"
        }
      ],
      "name": "users",
      "outputs": [
        {
          "name": "",
          "type": "uint256"
        }
      ],
      "payable": false,
      "stateMutability": "view",
      "type": "function",
      "signature": "0xa87430ba"
    },
    {
      "constant": true,
      "inputs": [],
      "name": "taxPercentage",
      "outputs": [
        {
          "name": "",
          "type": "uint256"
        }
      ],
      "payable": false,
      "stateMutability": "view",
      "type": "function",
      "signature": "0xae7b6d16"
    },
    {
      "constant": true,
      "inputs": [],
      "name": "epochPeriod",
      "outputs": [
        {
          "name": "",
          "type": "uint256"
        }
      ],
      "payable": false,
      "stateMutability": "view",
      "type": "function",
      "signature": "0xb5b7a184"
    },
    {
      "constant": true,
      "inputs": [
        {
          "name": "",
          "type": "uint256"
        }
      ],
      "name": "assets",
      "outputs": [
        {
          "name": "value",
          "type": "uint256"
        },
        {
          "name": "owner",
          "type": "address"
        },
        {
          "name": "createdTime",
          "type": "uint256"
        },
        {
          "name": "lastTaxPaid",
          "type": "uint256"
        }
      ],
      "payable": false,
      "stateMutability": "view",
      "type": "function",
      "signature": "0xcf35bdd0"
    },
    {
      "constant": true,
      "inputs": [],
      "name": "totalTaxCollected",
      "outputs": [
        {
          "name": "",
          "type": "uint256"
        }
      ],
      "payable": false,
      "stateMutability": "view",
      "type": "function",
      "signature": "0xd8454a82"
    },
    {
      "constant": true,
      "inputs": [],
      "name": "declarationDuration",
      "outputs": [
        {
          "name": "",
          "type": "uint256"
        }
      ],
      "payable": false,
      "stateMutability": "view",
      "type": "function",
      "signature": "0xe44a014c"
    },
    {
      "constant": true,
      "inputs": [],
      "name": "userCounter",
      "outputs": [
        {
          "name": "",
          "type": "uint256"
        }
      ],
      "payable": false,
      "stateMutability": "view",
      "type": "function",
      "signature": "0xf0c37a59"
    },
    {
      "constant": true,
      "inputs": [],
      "name": "totalEligbleUserAmount",
      "outputs": [
        {
          "name": "",
          "type": "uint256"
        }
      ],
      "payable": false,
      "stateMutability": "view",
      "type": "function",
      "signature": "0xf49aa2d6"
    },
    {
      "constant": true,
      "inputs": [
        {
          "name": "",
          "type": "address"
        },
        {
          "name": "",
          "type": "uint256"
        }
      ],
      "name": "userToAssets",
      "outputs": [
        {
          "name": "",
          "type": "uint256"
        }
      ],
      "payable": false,
      "stateMutability": "view",
      "type": "function",
      "signature": "0xff080273"
    },
    {
      "inputs": [
        {
          "name": "_epochPeriod",
          "type": "uint256"
        },
        {
          "name": "_taxPercentage",
          "type": "uint256"
        },
        {
          "name": "_declarationDuration",
          "type": "uint256"
        }
      ],
      "payable": false,
      "stateMutability": "nonpayable",
      "type": "constructor",
      "signature": "constructor"
    },
    {
      "constant": false,
      "inputs": [],
      "name": "createAsset",
      "outputs": [],
      "payable": true,
      "stateMutability": "payable",
      "type": "function",
      "signature": "0x31a5daf3"
    },
    {
      "constant": false,
      "inputs": [
        {
          "name": "id",
          "type": "uint256"
        }
      ],
      "name": "setAssetValue",
      "outputs": [],
      "payable": true,
      "stateMutability": "payable",
      "type": "function",
      "signature": "0xbddb8cb8"
    },
    {
      "constant": false,
      "inputs": [
        {
          "name": "currentOwner",
          "type": "address"
        },
        {
          "name": "idx",
          "type": "uint256"
        }
      ],
      "name": "claimAsset",
      "outputs": [],
      "payable": true,
      "stateMutability": "payable",
      "type": "function",
      "signature": "0xba4917b3"
    },
    {
      "constant": false,
      "inputs": [
        {
          "name": "currentOwner",
          "type": "address"
        },
        {
          "name": "idx",
          "type": "uint256"
        }
      ],
      "name": "buyAsset",
      "outputs": [],
      "payable": true,
      "stateMutability": "payable",
      "type": "function",
      "signature": "0x938c7c3a"
    },
    {
      "constant": false,
      "inputs": [],
      "name": "enterDeclerationPeriod",
      "outputs": [],
      "payable": false,
      "stateMutability": "nonpayable",
      "type": "function",
      "signature": "0x74c91b9f"
    },
    {
      "constant": false,
      "inputs": [],
      "name": "exitDeclerationPeriod",
      "outputs": [],
      "payable": false,
      "stateMutability": "nonpayable",
      "type": "function",
      "signature": "0x89d16bd5"
    },
    {
      "constant": false,
      "inputs": [
        {
          "name": "user",
          "type": "address"
        }
      ],
      "name": "collectDivdend",
      "outputs": [],
      "payable": false,
      "stateMutability": "nonpayable",
      "type": "function",
      "signature": "0xf0cbd9e0"
    }
  ],
  "bytecode": "0x60806040526000600381905560048190556005556006805460ff1916905534801561002957600080fd5b506040516060806110ed8339810180604052606081101561004957600080fd5b5080516020820151604090920151600991909155600791909155600a5542600855611074806100796000396000f3fe608060405260043610610126576000357c010000000000000000000000000000000000000000000000000000000090048063ba4917b3116100b2578063e44a014c11610081578063e44a014c146102ee578063f0c37a5914610303578063f0cbd9e014610318578063f49aa2d61461034b578063ff0802731461036057610126565b8063ba4917b314610238578063bddb8cb814610264578063cf35bdd014610281578063d8454a82146102d957610126565b806389d16bd5116100f957806389d16bd51461019a578063938c7c3a146101af578063a87430ba146101db578063ae7b6d161461020e578063b5b7a1841461022357610126565b806331a5daf31461012b578063495c759c1461013557806372bafc671461015e57806374c91b9f14610185575b600080fd5b610133610399565b005b34801561014157600080fd5b5061014a6105dd565b604080519115158252519081900360200190f35b34801561016a57600080fd5b506101736105e6565b60408051918252519081900360200190f35b34801561019157600080fd5b506101336105ec565b3480156101a657600080fd5b5061013361067a565b610133600480360360408110156101c557600080fd5b50600160a060020a0381351690602001356106a8565b3480156101e757600080fd5b50610173600480360360208110156101fe57600080fd5b5035600160a060020a031661095e565b34801561021a57600080fd5b50610173610970565b34801561022f57600080fd5b50610173610976565b6101336004803603604081101561024e57600080fd5b50600160a060020a03813516906020013561097c565b6101336004803603602081101561027a57600080fd5b5035610bce565b34801561028d57600080fd5b506102ab600480360360208110156102a457600080fd5b5035610dc5565b60408051948552600160a060020a039093166020850152838301919091526060830152519081900360800190f35b3480156102e557600080fd5b50610173610e06565b3480156102fa57600080fd5b50610173610e0c565b34801561030f57600080fd5b50610173610e12565b34801561032457600080fd5b506101336004803603602081101561033b57600080fd5b5035600160a060020a0316610e18565b34801561035757600080fd5b50610173610e95565b34801561036c57600080fd5b506101736004803603604081101561038357600080fd5b50600160a060020a038135169060200135610e9b565b60065460ff16156103f4576040805160e560020a62461bcd02815260206004820152601560248201527f496e206465636c61726174696f6e20706572696f640000000000000000000000604482015290519081900360640190fd5b6000341161044c576040805160e560020a62461bcd02815260206004820152601260248201527f4d757374206465636c6172652076616c75650000000000000000000000000000604482015290519081900360640190fd5b600042600854036009546103e80281151561046357fe5b04905061046e610fa8565b60806040519081016040528060075484340281151561048957fe5b0481523360208083018290524260408085019190915260088054606095860152600080546001808201835582805288517f290decd9548b62a8d60345a988386fc84ba6bc95484008f6362f93160ef3e5636004840290810191909155898701517f290decd9548b62a8d60345a988386fc84ba6bc95484008f6362f93160ef3e5648201805473ffffffffffffffffffffffffffffffffffffffff1916600160a060020a03909216919091179055898601517f290decd9548b62a8d60345a988386fc84ba6bc95484008f6362f93160ef3e56582015598909701517f290decd9548b62a8d60345a988386fc84ba6bc95484008f6362f93160ef3e566909801979097558481528584528281208054968701815581528381209095019590955593549183526002905291902054101591506105db905057600480546001019055600854336000908152600260205260409020555b565b60065460ff1681565b60085481565b6009546008540142118015610604575060065460ff16155b151561065a576040805160e560020a62461bcd02815260206004820152601d60248201527f43616e277420656e746572206465636c61726174696f6e506572696f64000000604482015290519081900360640190fd5b6006805460ff191660011790556009546008805490910190553031600555565b600a546008540142118015610691575060065460ff165b151561069c57600080fd5b6006805460ff19169055565b33600090815260026020526040812054116106c257600080fd5b60065460ff161561071d576040805160e560020a62461bcd02815260206004820152601560248201527f496e206465636c61726174696f6e20706572696f640000000000000000000000604482015290519081900360640190fd5b600160a060020a038216600090815260016020526040812080548390811061074157fe5b9060005260206000200154905060085460008281548110151561076057fe5b9060005260206000209060040201600301541415156107b35760405160e560020a62461bcd0281526004018080602001828103825260248152602001806110256024913960400191505060405180910390fd5b60008054829081106107c157fe5b60009182526020909120600490910201543411610828576040805160e560020a62461bcd02815260206004820152601260248201527f4e6f7420656e6f756768207061796d656e740000000000000000000000000000604482015290519081900360640190fd5b610833838333610ecb565b3360008281548110151561084357fe5b906000526020600020906004020160010160006101000a815481600160a060020a030219169083600160a060020a03160217905550600042600854036009546103e80281151561088f57fe5b049050600080838154811015156108a257fe5b906000526020600020906004020160000154905060075482823403028115156108c757fe5b046000848154811015156108d757fe5b60009182526020822060049091020191909155604051600160a060020a0387169183156108fc02918491818181858888f1935050505015801561091e573d6000803e3d6000fd5b5050600854336000908152600260205260409020541015915061095a905057600480546001019055600854336000908152600260205260409020555b5050565b60026020526000908152604090205481565b60075481565b60095481565b336000908152600260205260408120541161099657600080fd5b60065460ff16156109f1576040805160e560020a62461bcd02815260206004820152601560248201527f496e206465636c61726174696f6e20706572696f640000000000000000000000604482015290519081900360640190fd5b60003411610a49576040805160e560020a62461bcd02815260206004820152600660248201527f4e6f207461780000000000000000000000000000000000000000000000000000604482015290519081900360640190fd5b600160a060020a0382166000908152600160205260408120805483908110610a6d57fe5b90600052602060002001549050600854600082815481101515610a8c57fe5b906000526020600020906004020160030154101515610af5576040805160e560020a62461bcd02815260206004820152600c60248201527f2054617820697320706169640000000000000000000000000000000000000000604482015290519081900360640190fd5b610b00838333610ecb565b33600082815481101515610b1057fe5b906000526020600020906004020160010160006101000a815481600160a060020a030219169083600160a060020a03160217905550600042600854036009546103e802811515610b5c57fe5b049050600754813402811515610b6e57fe5b04600083815481101515610b7e57fe5b60009182526020808320600490920290910192909255600854338252600290925260409020541015915061095a905057600480546001019055600854336000908152600260205260409020555050565b60065460ff161515610c2a576040805160e560020a62461bcd02815260206004820152601960248201527f4e6f7420696e206465636c61726174696f6e20706572696f6400000000000000604482015290519081900360640190fd5b6000805433919083908110610c3b57fe5b6000918252602090912060016004909202010154600160a060020a031614610cad576040805160e560020a62461bcd02815260206004820152601660248201527f53656e646572206e6f74206173736574206f776e657200000000000000000000604482015290519081900360640190fd5b60003411610d05576040805160e560020a62461bcd02815260206004820152600b60248201527f4e6f207461782073656e74000000000000000000000000000000000000000000604482015290519081900360640190fd5b600954600854336000908152600260205260409020549190031415610d2d57610d2d33610e18565b600754346103e802811515610d3e57fe5b04600082815481101515610d4e57fe5b906000526020600020906004020160000181905550600854600082815481101515610d7557fe5b6000918252602080832060036004909302019190910192909255600854338252600290925260409020541015610dc257600480546001019055600854336000908152600260205260409020555b50565b6000805482908110610dd357fe5b60009182526020909120600490910201805460018201546002830154600390930154919350600160a060020a0316919084565b60055481565b600a5481565b60045481565b6009546008543360009081526002602052604090205491900314610e3b57600080fd5b33600090815260026020526040812055600354600554600160a060020a038316916108fc91811515610e6957fe5b049081150290604051600060405180830381858888f1935050505015801561095a573d6000803e3d6000fd5b60035481565b600160205281600052604060002081815481101515610eb657fe5b90600052602060002001600091509150505481565b600160a060020a0380821660009081526001602052604080822092861682529020805484908110610ef857fe5b60009182526020808320909101548354600181810186559484528284200155600160a060020a0386168252919091526040902080546000198101908110610f3b57fe5b6000918252602080832090910154600160a060020a038616835260019091526040909120805484908110610f6b57fe5b6000918252602080832090910192909255600160a060020a0385168152600190915260409020805490610fa2906000198301610fda565b50505050565b608060405190810160405280600081526020016000600160a060020a0316815260200160008152602001600081525090565b815481835581811115610ffe57600083815260209020610ffe918101908301611003565b505050565b61102191905b8082111561101d5760008155600101611009565b5090565b9056fe546178206973206e6f20706169642c2061737365742063616e20626520636c61696d6564a165627a7a723058208d13ac04775983ec1165d149b0b3e4e2423aa3be33b21e8a2a42da345beda8c70029",
  "source": "pragma solidity ^0.5.2;\ncontract Lynx {\n  struct Asset {\n    uint value;\n    address owner;\n    uint createdTime;\n    uint lastTaxPaid;\n  }\n  Asset[] public assets;\n\n  mapping(address => uint[]) public userToAssets;\n  mapping(address => uint) public users;\n  uint public totalEligbleUserAmount = 0;\n  uint public userCounter = 0;\n  uint public totalTaxCollected = 0;\n  bool public declarationPeriod = false;\n  uint public taxPercentage; //in mils\n  uint public lastDeclarationPeriod;\n  uint public epochPeriod;\n  uint public declarationDuration;\n\n  modifier isDeclarationPeriod() {\n    require(declarationPeriod, \"Not in declaration period\");\n    _;\n  }\n\n  modifier isEntryPeriod() {\n    require(!declarationPeriod, \"In declaration period\");\n    _;\n  }\n\n  modifier userIsMemeber() {\n    require(users[msg.sender] > 0);\n    _;\n  }\n\n  modifier countSender() {\n    _;\n    if (users[msg.sender] < lastDeclarationPeriod) {\n      userCounter += 1;\n      users[msg.sender] = lastDeclarationPeriod;\n    }\n  }\n\n  constructor(uint _epochPeriod, uint _taxPercentage, uint _declarationDuration)\n    public\n  {\n    epochPeriod = _epochPeriod;\n    taxPercentage = _taxPercentage;\n    declarationDuration = _declarationDuration;\n    lastDeclarationPeriod = now;\n  }\n\n  function createAsset() external payable isEntryPeriod countSender {\n    require(msg.value > 0, \"Must declare value\");\n    uint durationMultiplier = 1000 * epochPeriod / (lastDeclarationPeriod - now);\n    Asset memory newAsset = Asset({ // Note that we multipled the duration multiplier by a 1000 already\n      value: msg.value * durationMultiplier / taxPercentage,\n      owner: msg.sender,\n      createdTime: now,\n      lastTaxPaid: lastDeclarationPeriod\n    });\n    uint assetIndex = assets.push(newAsset) - 1;\n    userToAssets[msg.sender].push(assetIndex);\n  }\n\n  function setAssetValue(uint id) external payable isDeclarationPeriod countSender{\n    require(assets[id].owner == msg.sender, \"Sender not asset owner\");\n    require(msg.value > 0, \"No tax sent\");\n    // Check if user hasn't claimed dividends yet\n    if (users[msg.sender] == lastDeclarationPeriod - epochPeriod) {\n      // Give him the dividend\n      collectDivdend(msg.sender);\n    }\n    assets[id].value = msg.value * 1000 / taxPercentage;\n    assets[id].lastTaxPaid = lastDeclarationPeriod;\n  }\n\n  function claimAsset(address currentOwner, uint idx)\n    external\n    payable\n    userIsMemeber\n    isEntryPeriod\n    countSender\n  {\n    require(msg.value > 0, \"No tax\");\n\n    uint assetIdx = userToAssets[currentOwner][idx];\n    require(\n      assets[assetIdx].lastTaxPaid < lastDeclarationPeriod,\n      \" Tax is paid\"\n    );\n    switchOwners(currentOwner, idx, msg.sender);\n    assets[assetIdx].owner = msg.sender;\n    uint durationMultiplier = 1000 * epochPeriod / (lastDeclarationPeriod - now);\n    assets[assetIdx].value = msg.value * durationMultiplier / taxPercentage;\n\n  }\n\n  function buyAsset(address payable currentOwner, uint idx)\n    external\n    payable\n    userIsMemeber\n    isEntryPeriod\n    countSender\n  {\n    uint assetIdx = userToAssets[currentOwner][idx];\n    require(\n      assets[assetIdx].lastTaxPaid == lastDeclarationPeriod,\n      \"Tax is no paid, asset can be claimed\"\n    );\n    require(msg.value > assets[assetIdx].value, \"Not enough payment\");\n    switchOwners(currentOwner, idx, msg.sender);\n    assets[assetIdx].owner = msg.sender;\n    uint durationMultiplier = 1000 * epochPeriod / (lastDeclarationPeriod - now);\n    uint purchasePrice = assets[assetIdx].value;\n    assets[assetIdx].value = (msg.value - purchasePrice) * durationMultiplier / taxPercentage;\n    currentOwner.transfer(purchasePrice);\n\n  }\n\n  function enterDeclerationPeriod() external {\n    require(\n      now > lastDeclarationPeriod + epochPeriod && !declarationPeriod,\n      \"Can't enter declarationPeriod\"\n    );\n    declarationPeriod = true;\n    lastDeclarationPeriod += epochPeriod;\n    totalTaxCollected = address(this).balance;\n  }\n\n  function exitDeclerationPeriod() external {\n    require(\n      now > lastDeclarationPeriod + declarationDuration && declarationPeriod\n    );\n    declarationPeriod = false;\n  }\n\n  function collectDivdend(address payable user) public {\n    require(users[msg.sender] == lastDeclarationPeriod - epochPeriod);\n    users[msg.sender] = 0;\n    user.transfer(totalTaxCollected / totalEligbleUserAmount);\n  }\n\n  function switchOwners(\n    address currentOwner,\n    uint currentOwnerIdx,\n    address newOwner\n  ) internal {\n    userToAssets[newOwner].push(userToAssets[currentOwner][currentOwnerIdx]);\n    userToAssets[currentOwner][currentOwnerIdx] = userToAssets[currentOwner][userToAssets[currentOwner].length - 1];\n    userToAssets[currentOwner].length--;\n\n  }\n}\n",
  "sourcePath": "/home/yoni/Devel/lynx-sc/contracts/Lynx.sol",
  "compiler": {
    "name": "solc",
    "version": "0.5.2+commit.1df8f40c.Emscripten.clang"
  },
  "schemaVersion": "3.0.3",
  "updatedAt": "2019-03-15T04:52:51.268Z",
  "devdoc": {
    "methods": {}
  },
  "userdoc": {
    "methods": {}
  }
}