{
  "contractName": "Lynx",
  "abi": [
    {
      "constant": true,
      "inputs": [],
      "name": "declarationPeriod",
      "outputs": [
        {
          "name": "",
          "type": "bool"
        }
      ],
      "payable": false,
      "stateMutability": "view",
      "type": "function",
      "signature": "0x495c759c"
    },
    {
      "constant": true,
      "inputs": [],
      "name": "lastDeclarationPeriod",
      "outputs": [
        {
          "name": "",
          "type": "uint256"
        }
      ],
      "payable": false,
      "stateMutability": "view",
      "type": "function",
      "signature": "0x72bafc67"
    },
    {
      "constant": true,
      "inputs": [
        {
          "name": "",
          "type": "address"
        }
      ],
      "name": "users",
      "outputs": [
        {
          "name": "",
          "type": "uint256"
        }
      ],
      "payable": false,
      "stateMutability": "view",
      "type": "function",
      "signature": "0xa87430ba"
    },
    {
      "constant": true,
      "inputs": [],
      "name": "taxPercentage",
      "outputs": [
        {
          "name": "",
          "type": "uint256"
        }
      ],
      "payable": false,
      "stateMutability": "view",
      "type": "function",
      "signature": "0xae7b6d16"
    },
    {
      "constant": true,
      "inputs": [],
      "name": "epochPeriod",
      "outputs": [
        {
          "name": "",
          "type": "uint256"
        }
      ],
      "payable": false,
      "stateMutability": "view",
      "type": "function",
      "signature": "0xb5b7a184"
    },
    {
      "constant": true,
      "inputs": [
        {
          "name": "",
          "type": "uint256"
        }
      ],
      "name": "assets",
      "outputs": [
        {
          "name": "value",
          "type": "uint256"
        },
        {
          "name": "owner",
          "type": "address"
        },
        {
          "name": "createdTime",
          "type": "uint256"
        },
        {
          "name": "lastTaxPaid",
          "type": "uint256"
        }
      ],
      "payable": false,
      "stateMutability": "view",
      "type": "function",
      "signature": "0xcf35bdd0"
    },
    {
      "constant": true,
      "inputs": [],
      "name": "totalTaxCollected",
      "outputs": [
        {
          "name": "",
          "type": "uint256"
        }
      ],
      "payable": false,
      "stateMutability": "view",
      "type": "function",
      "signature": "0xd8454a82"
    },
    {
      "constant": true,
      "inputs": [],
      "name": "declarationDuration",
      "outputs": [
        {
          "name": "",
          "type": "uint256"
        }
      ],
      "payable": false,
      "stateMutability": "view",
      "type": "function",
      "signature": "0xe44a014c"
    },
    {
      "constant": true,
      "inputs": [],
      "name": "userCounter",
      "outputs": [
        {
          "name": "",
          "type": "uint256"
        }
      ],
      "payable": false,
      "stateMutability": "view",
      "type": "function",
      "signature": "0xf0c37a59"
    },
    {
      "constant": true,
      "inputs": [],
      "name": "totalEligbleUserAmount",
      "outputs": [
        {
          "name": "",
          "type": "uint256"
        }
      ],
      "payable": false,
      "stateMutability": "view",
      "type": "function",
      "signature": "0xf49aa2d6"
    },
    {
      "constant": true,
      "inputs": [
        {
          "name": "",
          "type": "address"
        },
        {
          "name": "",
          "type": "uint256"
        }
      ],
      "name": "userToAssets",
      "outputs": [
        {
          "name": "",
          "type": "uint256"
        }
      ],
      "payable": false,
      "stateMutability": "view",
      "type": "function",
      "signature": "0xff080273"
    },
    {
      "inputs": [
        {
          "name": "_epochPeriod",
          "type": "uint256"
        },
        {
          "name": "_taxPercentage",
          "type": "uint256"
        },
        {
          "name": "_declarationDuration",
          "type": "uint256"
        }
      ],
      "payable": false,
      "stateMutability": "nonpayable",
      "type": "constructor",
      "signature": "constructor"
    },
    {
      "constant": false,
      "inputs": [],
      "name": "createAsset",
      "outputs": [
        {
          "name": "assetIndex",
          "type": "uint256"
        }
      ],
      "payable": true,
      "stateMutability": "payable",
      "type": "function",
      "signature": "0x31a5daf3"
    },
    {
      "constant": false,
      "inputs": [
        {
          "name": "id",
          "type": "uint256"
        }
      ],
      "name": "setAssetValue",
      "outputs": [],
      "payable": true,
      "stateMutability": "payable",
      "type": "function",
      "signature": "0xbddb8cb8"
    },
    {
      "constant": false,
      "inputs": [
        {
          "name": "currentOwner",
          "type": "address"
        },
        {
          "name": "idx",
          "type": "uint256"
        }
      ],
      "name": "claimAsset",
      "outputs": [],
      "payable": true,
      "stateMutability": "payable",
      "type": "function",
      "signature": "0xba4917b3"
    },
    {
      "constant": false,
      "inputs": [
        {
          "name": "currentOwner",
          "type": "address"
        },
        {
          "name": "idx",
          "type": "uint256"
        }
      ],
      "name": "buyAsset",
      "outputs": [],
      "payable": true,
      "stateMutability": "payable",
      "type": "function",
      "signature": "0x938c7c3a"
    },
    {
      "constant": false,
      "inputs": [],
      "name": "enterDeclarationPeriod",
      "outputs": [],
      "payable": false,
      "stateMutability": "nonpayable",
      "type": "function",
      "signature": "0xb8c8466e"
    },
    {
      "constant": false,
      "inputs": [],
      "name": "exitDeclarationPeriod",
      "outputs": [],
      "payable": false,
      "stateMutability": "nonpayable",
      "type": "function",
      "signature": "0x3030a1a0"
    },
    {
      "constant": false,
      "inputs": [
        {
          "name": "user",
          "type": "address"
        }
      ],
      "name": "collectDivdend",
      "outputs": [],
      "payable": false,
      "stateMutability": "nonpayable",
      "type": "function",
      "signature": "0xf0cbd9e0"
    }
  ],
  "bytecode": "0x60806040526000600381905560048190556005556006805460ff1916905534801561002957600080fd5b506040516060806110a28339810180604052606081101561004957600080fd5b5080516020820151604090920151600991909155600791909155600a5542600855611029806100796000396000f3fe608060405260043610610126576000357c010000000000000000000000000000000000000000000000000000000090048063ba4917b3116100b2578063e44a014c11610081578063e44a014c146102ee578063f0c37a5914610303578063f0cbd9e014610318578063f49aa2d61461034b578063ff0802731461036057610126565b8063ba4917b314610238578063bddb8cb814610264578063cf35bdd014610281578063d8454a82146102d957610126565b8063938c7c3a116100f9578063938c7c3a1461019a578063a87430ba146101c6578063ae7b6d16146101f9578063b5b7a1841461020e578063b8c8466e1461022357610126565b80633030a1a01461012b57806331a5daf314610142578063495c759c1461015c57806372bafc6714610185575b600080fd5b34801561013757600080fd5b50610140610399565b005b61014a6103a5565b60408051918252519081900360200190f35b34801561016857600080fd5b506101716105ed565b604080519115158252519081900360200190f35b34801561019157600080fd5b5061014a6105f6565b610140600480360360408110156101b057600080fd5b50600160a060020a0381351690602001356105fc565b3480156101d257600080fd5b5061014a600480360360208110156101e957600080fd5b5035600160a060020a03166108b2565b34801561020557600080fd5b5061014a6108c4565b34801561021a57600080fd5b5061014a6108ca565b34801561022f57600080fd5b506101406108d0565b6101406004803603604081101561024e57600080fd5b50600160a060020a0381351690602001356108fb565b6101406004803603602081101561027a57600080fd5b5035610b4d565b34801561028d57600080fd5b506102ab600480360360208110156102a457600080fd5b5035610d44565b60408051948552600160a060020a039093166020850152838301919091526060830152519081900360800190f35b3480156102e557600080fd5b5061014a610d85565b3480156102fa57600080fd5b5061014a610d8b565b34801561030f57600080fd5b5061014a610d91565b34801561032457600080fd5b506101406004803603602081101561033b57600080fd5b5035600160a060020a0316610d97565b34801561035757600080fd5b5061014a610e4d565b34801561036c57600080fd5b5061014a6004803603604081101561038357600080fd5b50600160a060020a038135169060200135610e53565b6006805460ff19169055565b60065460009060ff1615610403576040805160e560020a62461bcd02815260206004820152601560248201527f496e206465636c61726174696f6e20706572696f640000000000000000000000604482015290519081900360640190fd5b6000341161045b576040805160e560020a62461bcd02815260206004820152601260248201527f4d757374206465636c6172652076616c75650000000000000000000000000000604482015290519081900360640190fd5b600042600854036009546103e80281151561047257fe5b04905061047d610f60565b60806040519081016040528060075484340281151561049857fe5b0481523360208083018290524260408085019190915260088054606095860152600080546001808201835582805288517f290decd9548b62a8d60345a988386fc84ba6bc95484008f6362f93160ef3e5636004840290810191909155898701517f290decd9548b62a8d60345a988386fc84ba6bc95484008f6362f93160ef3e5648201805473ffffffffffffffffffffffffffffffffffffffff1916600160a060020a03909216919091179055898601517f290decd9548b62a8d60345a988386fc84ba6bc95484008f6362f93160ef3e56582015598909701517f290decd9548b62a8d60345a988386fc84ba6bc95484008f6362f93160ef3e566909801979097558481528584528281208054968701815581528381209095019590955593549183526002905291902054101591506105ea905057600480546001019055600854336000908152600260205260409020555b90565b60065460ff1681565b60085481565b336000908152600260205260408120541161061657600080fd5b60065460ff1615610671576040805160e560020a62461bcd02815260206004820152601560248201527f496e206465636c61726174696f6e20706572696f640000000000000000000000604482015290519081900360640190fd5b600160a060020a038216600090815260016020526040812080548390811061069557fe5b906000526020600020015490506008546000828154811015156106b457fe5b9060005260206000209060040201600301541415156107075760405160e560020a62461bcd028152600401808060200182810382526024815260200180610fda6024913960400191505060405180910390fd5b600080548290811061071557fe5b6000918252602090912060049091020154341161077c576040805160e560020a62461bcd02815260206004820152601260248201527f4e6f7420656e6f756768207061796d656e740000000000000000000000000000604482015290519081900360640190fd5b610787838333610e83565b3360008281548110151561079757fe5b906000526020600020906004020160010160006101000a815481600160a060020a030219169083600160a060020a03160217905550600042600854036009546103e8028115156107e357fe5b049050600080838154811015156107f657fe5b9060005260206000209060040201600001549050600754828234030281151561081b57fe5b0460008481548110151561082b57fe5b60009182526020822060049091020191909155604051600160a060020a0387169183156108fc02918491818181858888f19350505050158015610872573d6000803e3d6000fd5b505060085433600090815260026020526040902054101591506108ae905057600480546001019055600854336000908152600260205260409020555b5050565b60026020526000908152604090205481565b60075481565b60095481565b6006805460ff1916600117905560095460088054909101905530316005556004805460035560009055565b336000908152600260205260408120541161091557600080fd5b60065460ff1615610970576040805160e560020a62461bcd02815260206004820152601560248201527f496e206465636c61726174696f6e20706572696f640000000000000000000000604482015290519081900360640190fd5b600034116109c8576040805160e560020a62461bcd02815260206004820152600660248201527f4e6f207461780000000000000000000000000000000000000000000000000000604482015290519081900360640190fd5b600160a060020a03821660009081526001602052604081208054839081106109ec57fe5b90600052602060002001549050600854600082815481101515610a0b57fe5b906000526020600020906004020160030154101515610a74576040805160e560020a62461bcd02815260206004820152600c60248201527f2054617820697320706169640000000000000000000000000000000000000000604482015290519081900360640190fd5b610a7f838333610e83565b33600082815481101515610a8f57fe5b906000526020600020906004020160010160006101000a815481600160a060020a030219169083600160a060020a03160217905550600042600854036009546103e802811515610adb57fe5b049050600754813402811515610aed57fe5b04600083815481101515610afd57fe5b6000918252602080832060049092029091019290925560085433825260029092526040902054101591506108ae905057600480546001019055600854336000908152600260205260409020555050565b60065460ff161515610ba9576040805160e560020a62461bcd02815260206004820152601960248201527f4e6f7420696e206465636c61726174696f6e20706572696f6400000000000000604482015290519081900360640190fd5b6000805433919083908110610bba57fe5b6000918252602090912060016004909202010154600160a060020a031614610c2c576040805160e560020a62461bcd02815260206004820152601660248201527f53656e646572206e6f74206173736574206f776e657200000000000000000000604482015290519081900360640190fd5b60003411610c84576040805160e560020a62461bcd02815260206004820152600b60248201527f4e6f207461782073656e74000000000000000000000000000000000000000000604482015290519081900360640190fd5b600954600854336000908152600260205260409020549190031415610cac57610cac33610d97565b600754346103e802811515610cbd57fe5b04600082815481101515610ccd57fe5b906000526020600020906004020160000181905550600854600082815481101515610cf457fe5b6000918252602080832060036004909302019190910192909255600854338252600290925260409020541015610d4157600480546001019055600854336000908152600260205260409020555b50565b6000805482908110610d5257fe5b60009182526020909120600490910201805460018201546002830154600390930154919350600160a060020a0316919084565b60055481565b600a5481565b60045481565b60065460ff161515610df3576040805160e560020a62461bcd02815260206004820152601960248201527f4e6f7420696e206465636c61726174696f6e20706572696f6400000000000000604482015290519081900360640190fd5b33600090815260026020526040812055600354600554600160a060020a038316916108fc91811515610e2157fe5b049081150290604051600060405180830381858888f193505050501580156108ae573d6000803e3d6000fd5b60035481565b600160205281600052604060002081815481101515610e6e57fe5b90600052602060002001600091509150505481565b600160a060020a0380821660009081526001602052604080822092861682529020805484908110610eb057fe5b60009182526020808320909101548354600181810186559484528284200155600160a060020a0386168252919091526040902080546000198101908110610ef357fe5b6000918252602080832090910154600160a060020a038616835260019091526040909120805484908110610f2357fe5b6000918252602080832090910192909255600160a060020a0385168152600190915260409020805490610f5a906000198301610f92565b50505050565b608060405190810160405280600081526020016000600160a060020a0316815260200160008152602001600081525090565b815481835581811115610fb657600083815260209020610fb6918101908301610fbb565b505050565b6105ea91905b80821115610fd55760008155600101610fc1565b509056fe546178206973206e6f20706169642c2061737365742063616e20626520636c61696d6564a165627a7a72305820954c4ca7c5809a82f3fc6f057ff35bf7e035b82ddbb232bc15e2b5f5f70c70680029",
  "source": "pragma solidity ^0.5.2;\ncontract Lynx {\n  struct Asset {\n    uint value;\n    address owner;\n    uint createdTime;\n    uint lastTaxPaid;\n  }\n  Asset[] public assets;\n\n  mapping(address => uint[]) public userToAssets;\n  mapping(address => uint) public users;\n  uint public totalEligbleUserAmount = 0;\n  uint public userCounter = 0;\n  uint public totalTaxCollected = 0;\n  bool public declarationPeriod = false;\n  uint public taxPercentage; //in mils\n  uint public lastDeclarationPeriod;\n  uint public epochPeriod;\n  uint public declarationDuration;\n\n  modifier isDeclarationPeriod() {\n    require(declarationPeriod, \"Not in declaration period\");\n    _;\n  }\n\n  modifier isEntryPeriod() {\n    require(!declarationPeriod, \"In declaration period\");\n    _;\n  }\n\n  modifier userIsMemeber() {\n    require(users[msg.sender] > 0);\n    _;\n  }\n\n  modifier countSender() {\n    _;\n    if (users[msg.sender] < lastDeclarationPeriod) {\n      userCounter += 1;\n      users[msg.sender] = lastDeclarationPeriod;\n    }\n  }\n\n  constructor(uint _epochPeriod, uint _taxPercentage, uint _declarationDuration)\n    public\n  {\n    epochPeriod = _epochPeriod;\n    taxPercentage = _taxPercentage;\n    declarationDuration = _declarationDuration;\n    lastDeclarationPeriod = now;\n  }\n\n  function createAsset()\n    external\n    payable\n    isEntryPeriod\n    countSender\n    returns (uint assetIndex)\n  {\n    require(msg.value > 0, \"Must declare value\");\n    uint durationMultiplier = 1000 * epochPeriod / (lastDeclarationPeriod - now);\n    Asset memory newAsset = Asset({ // Note that we multipled the duration multiplier by a 1000 already\n      value: msg.value * durationMultiplier / taxPercentage,\n      owner: msg.sender,\n      createdTime: now,\n      lastTaxPaid: lastDeclarationPeriod\n    });\n    uint assetIndex = assets.push(newAsset) - 1;\n    userToAssets[msg.sender].push(assetIndex);\n  }\n\n  function setAssetValue(uint id)\n    external\n    payable\n    isDeclarationPeriod\n    countSender\n  {\n    require(assets[id].owner == msg.sender, \"Sender not asset owner\");\n    require(msg.value > 0, \"No tax sent\");\n    // Check if user hasn't claimed dividends yet\n    if (users[msg.sender] == lastDeclarationPeriod - epochPeriod) {\n      // Give him the dividend\n      collectDivdend(msg.sender);\n    }\n    assets[id].value = msg.value * 1000 / taxPercentage;\n    assets[id].lastTaxPaid = lastDeclarationPeriod;\n  }\n\n  function claimAsset(address currentOwner, uint idx)\n    external\n    payable\n    userIsMemeber\n    isEntryPeriod\n    countSender\n  {\n    require(msg.value > 0, \"No tax\");\n\n    uint assetIdx = userToAssets[currentOwner][idx];\n    require(\n      assets[assetIdx].lastTaxPaid < lastDeclarationPeriod,\n      \" Tax is paid\"\n    );\n    switchOwners(currentOwner, idx, msg.sender);\n    assets[assetIdx].owner = msg.sender;\n    uint durationMultiplier = 1000 * epochPeriod / (lastDeclarationPeriod - now);\n    assets[assetIdx].value = msg.value * durationMultiplier / taxPercentage;\n\n  }\n\n  function buyAsset(address payable currentOwner, uint idx)\n    external\n    payable\n    userIsMemeber\n    isEntryPeriod\n    countSender\n  {\n    uint assetIdx = userToAssets[currentOwner][idx];\n    require(\n      assets[assetIdx].lastTaxPaid == lastDeclarationPeriod,\n      \"Tax is no paid, asset can be claimed\"\n    );\n    require(msg.value > assets[assetIdx].value, \"Not enough payment\");\n    switchOwners(currentOwner, idx, msg.sender);\n    assets[assetIdx].owner = msg.sender;\n    uint durationMultiplier = 1000 * epochPeriod / (lastDeclarationPeriod - now);\n    uint purchasePrice = assets[assetIdx].value;\n    assets[assetIdx].value = (msg.value - purchasePrice) * durationMultiplier / taxPercentage;\n    currentOwner.transfer(purchasePrice);\n\n  }\n\n  function enterDeclarationPeriod() external {\n    // require(\n    //   now > lastDeclarationPeriod + epochPeriod && !declarationPeriod,\n    //   \"Can't enter declarationPeriod\"\n    // );\n    declarationPeriod = true;\n    lastDeclarationPeriod += epochPeriod;\n    totalTaxCollected = address(this).balance;\n    totalEligbleUserAmount = userCounter;\n    userCounter = 0;\n  }\n\n  function exitDeclarationPeriod() external {\n    // require(\n    //   now > lastDeclarationPeriod + declarationDuration && declarationPeriod\n    // );\n    declarationPeriod = false;\n  }\n\n  function collectDivdend(address payable user) public isDeclarationPeriod {\n    //require(users[msg.sender] == lastDeclarationPeriod - epochPeriod);\n    users[msg.sender] = 0;\n    user.transfer(totalTaxCollected / totalEligbleUserAmount);\n  }\n\n  function switchOwners(\n    address currentOwner,\n    uint currentOwnerIdx,\n    address newOwner\n  ) internal {\n    userToAssets[newOwner].push(userToAssets[currentOwner][currentOwnerIdx]);\n    userToAssets[currentOwner][currentOwnerIdx] = userToAssets[currentOwner][userToAssets[currentOwner].length - 1];\n    userToAssets[currentOwner].length--;\n\n  }\n}\n",
  "sourcePath": "/home/yoni/Devel/lynx-sc/contracts/Lynx.sol",
  "compiler": {
    "name": "solc",
    "version": "0.5.2+commit.1df8f40c.Emscripten.clang"
  },
  "schemaVersion": "3.0.3",
  "updatedAt": "2019-03-15T07:14:38.265Z",
  "devdoc": {
    "methods": {}
  },
  "userdoc": {
    "methods": {}
  }
}